:1000000080770020853301009D0002003D33010010
:100010003D3301003D3301003D330100000000008D
:10002000000000000000000000000000E92E0100B8
:100030003D33010000000000552E01003D3301005A
:10004000B5300100035A0200B5300100B53001009F
:10005000B5300100B5300100B5300100B530010008
:10006000CB590200B5300100B5300100E95902005A
:10007000B5300100B5300100B5300100B5300100E8
:10008000B5300100B5300100B5300100B5300100D8
:10009000B5300100B5300100B5300100B5300100C8
:1000A000B5300100B5300100B5300100B5300100B8
:1000B000B5300100B5300100B5300100B5300100A8
:1000C000B5300100B5300100B5300100B530010098
:1000D000B5300100B5300100B5300100B530010088
:1000E000B5300100B5300100B5300100B530010078
:1000F000B5300100B5300100B5300100B530010068
:1001000081F0004102E000BF83F0004330B54FEAC8
:1001100041044FEA430594EA050F08BF90EA020F35
:100120001FBF54EA000C55EA020C7FEA645C7FEAC8
:10013000655C00F0E2804FEA5454D4EB5555B8BFEB
:100140006D420CDD2C4480EA020281EA030382EA5C
:10015000000083EA010180EA020281EA0303362DEE
:1001600088BF30BD11F0004F4FEA01314FF4801CC1
:100170004CEA113102D0404261EB410113F0004FD3
:100180004FEA03334CEA133302D0524263EB43038A
:1001900094EA050F00F0A780A4F10104D5F1200E28
:1001A0000DDB02FA0EFC22FA05F2801841F1000183
:1001B00003FA0EF2801843FA05F359410EE0A5F157
:1001C00020050EF1200E012A03FA0EFC28BF4CF088
:1001D000020C43FA05F3C01851EBE37101F000453E
:1001E00007D54FF0000EDCF1000C7EEB00006EEB4B
:1001F0000101B1F5801F1BD3B1F5001F0CD34908D5
:100200005FEA30004FEA3C0C04F101044FEA44522B
:1002100012F5800F80F09A80BCF1004F08BF5FEAB2
:10022000500C50F1000041EB045141EA050130BD92
:100230005FEA4C0C404141EB0101013C28BFB1F5A4
:10024000801FE9D291F0000F04BF01460020B1FAEF
:1002500081F308BF2033A3F10B03B3F120020CDAC2
:100260000C3208DD02F1140CC2F10C0201FA0CF0A0
:1002700021FA02F10CE002F11402D8BFC2F1200C05
:1002800001FA02F120FA0CFCDCBF41EA0C019040BB
:10029000E41AA2BF01EB0451294330BD6FEA040404
:1002A0001F3C1CDA0C340EDC04F11404C4F12002EF
:1002B00020FA04F001FA02F340EA030021FA04F301
:1002C00045EA030130BDC4F10C04C4F1200220FA58
:1002D00002F001FA04F340EA0300294630BD21FA96
:1002E00004F0294630BD94F0000F83F4801306BF5C
:1002F00081F480110134013D4EE77FEA645C18BF50
:100300007FEA655C29D094EA050F08BF90EA020FE6
:1003100005D054EA000C04BF1946104630BD91EADE
:10032000030F1EBF0021002030BD5FEA545C05D1E1
:100330004000494128BF41F0004130BD14F5800420
:100340003CBF01F5801130BD01F0004545F0FE4194
:1003500041F470014FF0000030BD7FEA645C1ABFC9
:10036000194610467FEA655C1CBF0B46024650EA00
:10037000013406BF52EA033591EA030F41F400212C
:1003800030BD00BF90F0000F04BF0021704730B5B2
:100390004FF4806404F132044FF000054FF0000187
:1003A00050E700BF90F0000F04BF0021704730B548
:1003B0004FF4806404F1320410F0004548BF40421D
:1003C0004FF000013EE700BF42004FEAE2014FEA72
:1003D00031014FEA02701FBF12F07F4393F07F4F4D
:1003E00081F06051704732F07F4208BF704793F050
:1003F0007F4F04BF41F40021704730B54FF4607463
:1004000001F0004521F000411CE700BF50EA010265
:1004100008BF704730B54FF000050AE050EA01020E
:1004200008BF704730B511F0004502D5404261EB7E
:1004300041014FF4806404F132045FEA915C3FF4BF
:10044000D8AE4FF003025FEADC0C18BF03325FEA5C
:10045000DC0C18BF033202EBDC02C2F1200300FA0D
:1004600003FC20FA02F001FA03FE40EA0E0021FA32
:1004700002F11444BDE600BF70B54FF0FF0C4CF420
:10048000E06C1CEA11541DBF1CEA135594EA0C0FD2
:1004900095EA0C0F00F0DEF82C4481EA030621EA0D
:1004A0004C5123EA4C5350EA013518BF52EA033548
:1004B00041F4801143F4801338D0A0FB02CE4FF0FA
:1004C0000005E1FB02E506F00042E0FB03E54FF02A
:1004D0000006E1FB03569CF0000F18BF4EF0010E22
:1004E000A4F1FF04B6F5007F64F5407404D25FEA1E
:1004F0004E0E6D4146EB060642EAC62141EA5551D1
:100500004FEAC52040EA5E504FEACE2EB4F1FD0C12
:1005100088BFBCF5E06F1ED8BEF1004F08BF5FEA90
:10052000500E50F1000041EB045170BD06F0004642
:1005300046EA010140EA020081EA0301B4EB5C04EF
:10054000C2BFD4EB0C0541EA045170BD41F48011E7
:100550004FF0000E013C00F3AB8014F1360FDEBF0C
:10056000002001F0004170BDC4F10004203C35DAE8
:100570000C341BDC04F11404C4F1200500FA05F36B
:1005800020FA04F001FA05F240EA020001F000420C
:1005900021F0004110EBD37021FA04F642EB060182
:1005A0005EEA430E08BF20EAD37070BDC4F10C04AC
:1005B000C4F1200500FA04F320FA05F001FA04F270
:1005C00040EA020001F0004110EBD37041F100015C
:1005D0005EEA430E08BF20EAD37070BDC4F1200567
:1005E00000FA05F24EEA020E20FA04F301FA05F2CF
:1005F00043EA020321FA04F001F0004121FA04F277
:1006000020EA020000EBD3705EEA430E08BF20EA46
:10061000D37070BD94F0000F0FD101F00046400080
:1006200041EB010111F4801F08BF013CF7D041EA02
:10063000060195F0000F18BF704703F00046520006
:1006400043EB030313F4801F08BF013DF7D043EAD7
:100650000603704794EA0C0F0CEA135518BF95EA8D
:100660000C0F0CD050EA410618BF52EA4306D1D114
:1006700081EA030101F000414FF0000070BD50EA33
:10068000410606BF1046194652EA430619D094EABD
:100690000C0F02D150EA013613D195EA0C0F05D1A7
:1006A00052EA03361CBF104619460AD181EA0301FB
:1006B00001F0004141F0FE4141F470014FF00000B3
:1006C00070BD41F0FE4141F4780170BD70B54FF04E
:1006D000FF0C4CF4E06C1CEA11541DBF1CEA1355CE
:1006E00094EA0C0F95EA0C0F00F0A7F8A4EB0504B0
:1006F00081EA030E52EA03354FEA013100F08880A7
:100700004FEA03334FF0805545EA131343EA12636F
:100710004FEA022245EA111545EA10654FEA002624
:100720000EF000419D4208BF964244F1FD0404F5DD
:10073000407402D25B084FEA3202B61A65EB030539
:100740005B084FEA32024FF480104FF4002CB6EBF6
:10075000020E75EB030E22BFB61A754640EA0C0076
:100760005B084FEA3202B6EB020E75EB030E22BFB6
:10077000B61A754640EA5C005B084FEA3202B6EBF7
:10078000020E75EB030E22BFB61A754640EA9C00B6
:100790005B084FEA3202B6EB020E75EB030E22BF86
:1007A000B61A754640EADC0055EA060E18D04FEA44
:1007B000051545EA16754FEA06164FEAC30343EAE4
:1007C00052734FEAC2025FEA1C1CC0D111F4801FB1
:1007D0000BD141EA00014FF000004FF0004CB6E7AA
:1007E00011F4801F04BF01430020B4F1FD0C88BF49
:1007F000BCF5E06F3FF6AFAEB5EB030C04BFB6EB54
:10080000020C5FEA500C50F1000041EB045170BD46
:100810000EF0004E4EEA113114EB5C04C2BFD4EB73
:100820000C0541EA045170BD41F480114FF0000EF7
:10083000013C90E645EA060E8DE60CEA135594EA73
:100840000C0F08BF95EA0C0F3FF43BAF94EA0C0F76
:100850000AD150EA01347FF434AF95EA0C0F7FF4EB
:1008600025AF104619462CE795EA0C0F06D152EA3F
:1008700003353FF4FDAE1046194622E750EA410623
:1008800018BF52EA43067FF4C5AE50EA41047FF434
:100890000DAF52EA43057FF4EBAE12E74FF0FF3C99
:1008A00006E000BF4FF0010C02E000BF4FF0010C6A
:1008B0004DF804CD4FEA410C7FEA6C5C4FEA430CE3
:1008C00018BF7FEA6C5C1BD001B050EA410C0CBF32
:1008D00052EA430C91EA030F02BF90EA020F002094
:1008E000704710F1000F91EA030F58BF994208BFFB
:1008F00090422CBFD8176FEAE37040F001007047B8
:100900004FEA410C7FEA6C5C02D150EA013C07D10E
:100910004FEA430C7FEA6C5CD6D152EA033CD3D059
:100920005DF8040B704700BF8446104662468C4653
:100930001946634600E000BF01B5FFF7B7FF002886
:1009400048BF10F1000F01BD4DF808EDFFF7F4FFAF
:100950000CBF012000205DF808FB00BF4DF808ED3A
:10096000FFF7EAFF34BF012000205DF808FB00BF5D
:100970004DF808EDFFF7E0FF94BF012000205DF87F
:1009800008FB00BF4DF808EDFFF7CEFF94BF012034
:1009900000205DF808FB00BF4DF808EDFFF7C4FF2D
:1009A00034BF012000205DF808FB00BF4FEA410280
:1009B000B2F1E04324BFB3F5001CDCF1FE5C0DD9BD
:1009C00001F0004C4FEAC0024CEA5070B2F1004F07
:1009D00040EB830008BF20F00100704711F0804F0A
:1009E00021D113F13872BCBF01F00040704741F4CF
:1009F00080114FEA5252C2F11802C2F1200C10FAD3
:100A00000CF320FA02F018BF40F001004FEAC123B6
:100A10004FEAD32303FA0CFC40EA0C0023FA02F35A
:100A20004FEA4303CCE77FEA625307D150EA013330
:100A30001EBF4FF0FE4040F44000704701F0004000
:100A400040F0FE4040F40000704700BF53B94AB97F
:100A5000002908BF00281CBF4FF0FF314FF0FF30C6
:100A600000F06EB9ADF1080C6DE904CE00F006F8A7
:100A7000DDF804E0DDE9022304B070472DE9F0471A
:100A8000089D04468C46002B40F083808A4217461E
:100A900047D9B2FA82F242B1C2F1200024FA00F042
:100AA0009140974040EA010C94404FEA1748230CCC
:100AB000BCFBF8F61FFA87FE08FB16C143EA0143A8
:100AC00006FB0EF1994209D9FB1806F1FF3080F0C0
:100AD0001981994240F21681023E3B445B1AA4B24E
:100AE000B3FBF8F008FB103344EA034400FB0EFEAE
:100AF000A64509D93C1900F1FF3380F00581A645D0
:100B000040F2028102383C4440EA0640A4EB0E0465
:100B100000261DB1D4400023C5E900433146BDE89D
:100B2000F08702B9FFDEB2FA82F2002A50D1CB1B65
:100B30004FEA174E1FFA87F80126B3FBFEFC210C83
:100B40000EFB1C3341EA034108FB0CF38B4207D92F
:100B500079180CF1FF3002D28B4200F2E980844612
:100B6000C91AA3B2B1FBFEF00EFB101143EA014417
:100B700008FB00F8A04507D93C1900F1FF3302D269
:100B8000A04500F2D9801846A4EB080440EA0C40C6
:100B9000BFE78B4209D9002D00F0B1800026C5E9DE
:100BA000000130463146BDE8F087B3FA83F6002EE7
:100BB0004AD18B4202D3824200F2B880841A61EBA0
:100BC000030101208C46002DA8D0C5E9004CA5E703
:100BD000C2F1200320FA03F6974001FA02F04FEA2F
:100BE000174ED9403043030CB1FBFEF61FFA87F8CD
:100BF0000EFB161143EA014306FB08F1994204FA81
:100C000002F409D9FB1806F1FF3C80F08D8099426F
:100C100040F28A80023E3B445B1A81B2B3FBFEF095
:100C20000EFB103341EA034100FB08F38B4207D966
:100C3000791800F1FF3C73D28B4271D902383944E4
:100C4000CB1A40EA064678E7C6F1200C03FA06F410
:100C500022FA0CF31C4320FA0CF701FA06F34FEAD0
:100C6000144E21FA0CF11F433B0CB1FBFEF91FFAA5
:100C700084F80EFB191143EA014109FB08FA8A4581
:100C800002FA06F200FA06F308D9611809F1FF30FA
:100C900048D28A4546D9A9F102092144A1EB0A01AB
:100CA000BFB2B1FBFEF00EFB101147EA014700FB9B
:100CB00008F8B84507D9E71900F1FF312ED2B84539
:100CC0002CD90238274440EA0940A7EB0807A0FBCB
:100CD00002894F45C64649461AD317D05DB1B3EBDA
:100CE0000E0267EB010707FA0CFCF2404CEA020225
:100CF000F740C5E9002700263146BDE8F0872E46BB
:100D000028460BE70646E9E61846FDE64345E5D2E8
:100D1000B8EB020E69EB04010138DFE70846D2E7C1
:100D200060468DE78146B9E7664675E730464AE793
:100D3000ACF1020C394413E702383C4424E700BF0D
:100D4000704700BFF8B515460A4A1C4656682EB1D2
:100D500001B02A46B446BDE8F040604700208DF857
:100D6000000068460BF022F99DF80000281A207058
:100D70000020F8BD00000020014800787047000006
:100D80000800002005490A78904201D300207047EE
:100D9000496800EBC00001EB8000704708000020AC
:100DA00070B50546202A27D019481A4C00EB831C41
:100DB0000CEB420004EB8303202922D00CEB410111
:100DC00040784C784870204601460CEB4100914237
:100DD00005704078F8D193F82220202A1ABF0CEB36
:100DE0004202547083F8214020220CEB410C8CF815
:100DF000012083F8221070BD40F27E21702003F0A4
:100E000069F993F82040407883F82000DBE7000080
:100E10002C0F0020AC0F00202DE9FF4F85B01546A8
:100E20000C4602F0D9F8284420F07F400290216857
:100E3000081A0002C11700EB11600012002800F32D
:100E4000D580AC48089FAC4E00EB8700039090F82B
:100E500020502020E9460DF104088DF8000006F529
:100E6000407A202D18BF0AEB871B25D005EB4500E3
:100E700006EBC0002268C168511A0902CA1701EBCB
:100E800012610830091217D4618971B1418961B9C1
:100E900000F0B2FD02F0A0F82168081A0002C117A4
:100EA00000EB11600012332806DB0BEB450089F8DC
:100EB00000504578202DD9D199F8000088F800001D
:100EC000A146202D1CBF8D4800EB871B00F00E8132
:100ED00005EB450106EBC10AD9F80420DAF8081041
:100EE0004846891A0902CA1701EB12610AF108077C
:100EF000091215D47989002900F0F8804189002968
:100F000040F0F48000F078FD02F066F83968081AC5
:100F10000002C11700EB11600012332880F2E68056
:100F200088F800509AF8141099F80C00814206D9FC
:100F30000BEB45004578202DCAD100F0D7B89DF8BD
:100F4000040000EB400006EBC005688AEF6800284B
:100F500043D16089E8B3A8680BF048F8698A2A7C15
:100F6000674B1144491C4218984204D940F2096168
:100F7000702003F0AFF86348814204DD40F20A615B
:100F8000702003F0A7F86048814204DA40F20B6158
:100F9000702003F09FF85D489042DCBF02F5F70235
:100FA000A2F1F85205DD002ABCBFA2F5F70202F15A
:100FB000F852104602F010F820F07F41781A000233
:100FC000C21700EB126000123328B8BF01F13300E2
:100FD00000E002E0B8BF20F07F470298381A000214
:100FE000C11700EB11600012002803DD09B00020DA
:100FF000BDE8F08FD4E90010401A384427F07F4153
:1010000020F07F40C4E900100398DDF820806F468F
:1010100090F8205020200DF1040A8DF80000202DBA
:101020001CBF364800EB881925D000BF05EB4500F2
:1010300006EBC0002268C168511A0902CA1701EB09
:1010400012610830091216D4618971B1418961B900
:1010500000F0D2FC01F0C0FF2168081A0002C1179D
:1010600000EB11600012332805DB09EB45003D70F1
:101070004578202DDAD138788AF800002746202DCF
:101080001CBF1E4800EB881B30D005EB450106EB6A
:10109000C1097968D9F808203846511A0902CA17D7
:1010A00001EB126109F10808091212D4B8F80A100C
:1010B000E1B14189D1B900F09FFC01F08DFFD8F872
:1010C0000010081A0002C11700EB1160001233284B
:1010D0000CDA8AF8005099F81400397B88427FF6C0
:1010E0002EAF0BEB45004578202DCED109B0012065
:1010F000BDE8F08FAC0F00202C0C00202C0F00203E
:10110000FF7F841E0020A10700E05EF80080841E9F
:101110002DE9F05F04463C480E4600EB86003B4F4D
:1011200090F82050202098469246107007F540799C
:10113000202D18BF09EB861B28D000BF05EB45000A
:1011400007EBC00000F10801C0682268101A000215
:10115000C21700EB1260001218D4608978B1488978
:1011600068B9084600F048FC01F036FF2168081A0B
:101170000002C11700EB11600012332806DB0BEBF5
:1011800045008AF800504578202DD7D19AF8000004
:1011900088F80000202D18BF09EB861A30D005EB27
:1011A000450107EBC1096168D9F808202046511AAA
:1011B0000902CA1701EB126109F10806091210D4DD
:1011C0007189E9B14189D9B900F016FC01F004FF39
:1011D0003168081A0002C11700EB116000123328B1
:1011E0000EDA88F8005099F81400217B884202D862
:1011F0000020BDE8F09F0AEB45004578202DCED1B8
:101200000120BDE8F09F0000AC0F00202C0C002056
:101210002DE9F74F98B016460D464FF000084FF0F5
:10122000010B02F05BF90446012D18BF022D05D019
:1012300040F694114FF0700002F04CFFF849012085
:101240000860F8498968086000208DF84E000C900D
:10125000401E0E90F44806EB460100EBC101083138
:101260000FAF0FC987E80F000FA800F0C5FB0D9066
:10127000ED48BDF84690B0F89C03ADF84C00B9F1CC
:10128000000F14BF4FF0010A4FF0000A0F9814909E
:10129000BAF1000F09D0E54890F82C0028B902F007
:1012A000A1FE002808BF012700D00027E048002148
:1012B000159100780E46012818BF03283FD1DC485D
:1012C000B0F80280A8EB09001590C84537D90D9BEE
:1012D000DFF860E36FEA080C03A917AA03EB0C0020
:1012E000734504D940F20961702002F0F3FED24B3D
:1012F0009C4504DD40F20A61702002F0EBFECF4B0A
:101300009C4504DA40F20B61702002F0E3FECC4B06
:101310008342DCBF00F5F700A0F1F85005DD00289E
:10132000BCBFA0F5F70000F1F85001F071FE039882
:101330000F9920F07F400390081A20F07F41002F82
:1013400018BF322604D19DF84C00002818BF022691
:10135000B4F1807F08D00F98001B0002C21700EB89
:1013600012600012012802DA042218980BE047B13B
:10137000AE4890F82D0020B19DF84C00061C18BF17
:10138000022620460122B9F1000F02D0159B1E2B28
:1013900002DA9DF84C3013B14FF0000B521EA44BF3
:1013A0009DF84DE032441B7815930F9B5B1A23F098
:1013B0007F4CACEB00031B02DE1703EB16631B1222
:1013C000934218DB002918BFCDF83CC00F9E05974B
:1013D000002701F07BFF301A0002C11700EB1160FB
:1013E00000123E283FDA012D20D0701E059920F012
:1013F0007F4019B32DE081B1BEF1000F04BF159BF2
:10140000032B0AD027B99DF84C10002918BF921E53
:1014100000218DF84C108846C7E707BB9DF84C307B
:10142000EBB100238DF84C30921EBEE7B4F1807F03
:1014300020D140F60D11702002F04CFEB4F1807FF7
:1014400007D0211A0902CA1701EB126109120429F7
:1014500003DD044601F040FF0CE000290ADD1BB06B
:101460000020BDE8F08F701E20F07F44204601F080
:1014700033FF5746B4F1807F24D00F98714A001B88
:1014800020F07F411098001B20F07F408B4598BFD3
:10149000B1F5800FE3D28242E1D320460AF0A6FDE7
:1014A00064490D9A4B1C161AB6EB930F24BFA0EBA0
:1014B000020CBCEB930F10D3B14208D2081A1044AF
:1014C000461C0AE040F62D21702002F003FE614523
:1014D0002CD2891A0844401C46425448807F50B39D
:1014E000284645464FF0000BD846012805D002207B
:1014F00002F04AF9012002F047F9A94527D2A6EBEC
:1015000005014FF001034FF003024FF0020002F01B
:1015100067F8002808BF4FF00108B9F1000F30D07C
:101520000123A6EB0901032218461EE040F60C3108
:10153000702002F0CFFDC14534BF404648465844B4
:10154000B042CDDB4FF42461702002F0C3FD10D90E
:101550000123A6EB09010322184602F041F828B343
:101560007DB1711B01230322022002F039F8E8B19A
:1015700007E055EA090004D040F67711702002F028
:10158000A9FD012303223146002002F029F868B1A9
:101590000125B8F1000F03D014980F908DF84CB0CE
:1015A000DFF8A480BAF1000F0ED109E0022002F0AA
:1015B000EBF8012002F0E8F81BB00020BDE8F08F46
:1015C0001A4890F82D0000B14FB3DFF860A09AF8E8
:1015D0002C0018B102F0B0FB8AF82CB0D7B3A4F1FC
:1015E000320020F07F414FF40020C8F800000023B3
:1015F0000322052001F0F4FF68B34FF0804405207A
:1016000002F08EF91149C1F81005C1F814451049CE
:10161000E0120860054C94F82D00E8B330E01BE0C0
:1016200008050040100000202C0C0020AC0F00200A
:1016300012000020FF7F841E0020A10700E05EF85A
:101640000080841EFFFF3F0008F5014098F0014034
:1016500004F5014005E025E0DFF8B4A09AF82C007D
:10166000C8B12B4C94F82D0050B14FF40020C8F8AD
:101670000000052002F088F802F0C6FB84F82DB0C7
:10168000A6EB0900A0F11901002915DC40F6712133
:10169000702002F01FFD00E009E002F069FB8AF80B
:1016A0002C509BE740F23E31702002F013FD02F017
:1016B0009DFB84F82D50E3E703220123104601F03F
:1016C0008FFFF8B113488068C0F800B01248C0F826
:1016D00000B00DF13008114898E8FE10C0F88013F2
:1016E000C0F88423C0F88833C0F88C43C0F8905306
:1016F000C0F89463C0F89873C0F89CC31BB0012075
:10170000BDE8F08F40F67921702002F0E3FC000084
:10171000AC0F002010000020080500402C0C002019
:101720002DE9F043064683B008789073CF7A57735B
:10173000887A10730889144650810D460A785F49EB
:1017400099464FEA810C4B42ACF101085AB1C043B3
:10175000D5F8048004F1080288423DDD40F20A61B8
:10176000702002F0B7FCEE686D686FEA000904F1C2
:10177000080206EB0900464504D940F209617020D1
:1017800002F0A8FC8945E9DC994528DB8445DCBFEB
:1017900000F5F700A0F1F85005DD0028BCBFA0F56A
:1017A000F70000F1F850214601F032FC206820F0EB
:1017B0007F417019401C2160002F08BF7A3003D090
:1017C000012F08BF48302DD101F006FC20F07F40EA
:1017D000606003B0BDE8F0830146984204DA40F24D
:1017E0000B61702002F076FC8445DCBFA1F1F4505F
:1017F000A0F5902005DD0028BCBF01F1F45000F5F4
:101800009020214601F004FC2068002F20F07F4149
:1018100008F10100216008BF7A3008D0012F08BF0D
:10182000483004D040F2B161702002F053FC01F066
:10183000D3FB20F07F416160608901AA694601F015
:10184000E7FB1F4890F82F10202923D00069401D86
:1018500020F07F40D4E90021891A2060084420F05C
:101860007F4060604B4632462146E868FFF7D4FA75
:1018700000281CBF03B0BDE8F083D4E90010401A73
:10188000304426F07F4120F07F40C4E9001003B0CF
:10189000BDE8F083608906F1090720B102F0A2FBE0
:1018A000002808BF3237074841780098814284BF3A
:1018B000081A074427F07F40CCE700000020A1076A
:1018C000AC0F00201200002010B5154C94F82F002A
:1018D000202818BF10BD94F82E2004EB820090F849
:1018E0002010202917D0DFF83CC00CEB821303EB4B
:1018F00041035B7880F82030012380F8233084F89E
:101900002B3084F82F10022000F0B0F8002084F86B
:101910002A00A07710BD40F28B31702002F0DAFB74
:10192000AC0F00202C0F00202DE9F05FDFF8B8800D
:1019300098F82E5008EB850090F82140202C08BF25
:10194000BDE8F09FDFF8A4B0DFF8A4A0AAF54079C5
:101950000AEB8517072617F8140001280ED0042873
:1019600008BF02260AD005280CBF0326062805D08A
:1019700040F6D9014FF0700002F0ACFBBBF1000F54
:1019800018BFAFF30080EFF3108072B607EB44018D
:101990004A7808EB850181F8212091F82220A242A3
:1019A00004BF202281F82220B8B12A462146012016
:1019B00000F05CF804EB440109EBC10059F8312058
:1019C00040683146904798F82E5008EB850090F813
:1019D0002140202CBCD1BDE8F09F0648002818BF4C
:1019E000AFF3008062B6E0E7AC0F0020000000001B
:1019F0002C0F00200000000010B5044600680AF01B
:101A0000F5FA02466089217A144B0844411C5018AB
:101A10009A4204D940F20961702002F05BFB104A3F
:101A2000914204DD40F20A61702002F053FB0D4A3E
:101A3000914204DA40F20B61702002F04BFB0A493C
:101A40008142DEBF00F5F700A0F1F85010BD00287C
:101A5000BCBFA0F5F70000F1F85010BDFF7F841E59
:101A60000020A10700E05EF80080841EDFF854C06B
:101A700010B500230CEB821C07281ED2DFE800F013
:101A8000050505050404040001230CF81100002BD2
:101A900008BF10BD0C4800EB820292F822002028FB
:101AA0000EBF82F821100CEB4000417020200CEB9F
:101AB0004103587082F8221010BD4FF41571702048
:101AC00002F008FB2C0F0020AC0F00202DE9F34F93
:101AD00083B05C48049900EB8100019090F82040AD
:101AE00003982546012818BF022805D04FF42B6122
:101AF0004FF0700002F0EEFA0027202D4AD0514836
:101B000000910026807F002808BF022601F0DEFB3E
:101B1000DFF838A104EB44010AEBC101DFF828919A
:101B20008A68C968121A091A22F07F4221F07F419F
:101B3000964298BFB2F5800F01D2894528D2444A17
:101B4000009902EB811B22460BEB42014C78202CC2
:101B500016D004EB44010AEBC10CDCF80880DCF879
:101B60000CC0A8EB000828F07F48ACEB000121F086
:101B70007F41464598BFB8F5800FE4D28945E2D34E
:101B8000202A05D020210420009BFFF709F90446F4
:101B9000AC4215D12F48002818BFAFF3008001F0E8
:101BA00095FB284C94F8301020290DD0E168821C58
:101BB000511A0902CA1701EB12610912002903DD4B
:101BC00005B00020BDE8F08F202D0DD02A460399E6
:101BD000FFF71EFB58B3019880F8237084F830504B
:101BE00005B00120BDE8F08F94F82C0018B102F088
:101BF000A3F884F82C7094F82D0050B116494FF4D6
:101C000000200860052001F0BFFD02F0FDF884F817
:101C10002D70042001F0B8FD01F024FE202084F88E
:101C200030000E48806807600D480760D8E72A46F4
:101C300020210420049BFFF7B3F805B00020BDE885
:101C4000F08F0000AC0F0020FFFF3F002C0C0020A5
:101C50002C0F00200000000008F5014010000020BB
:101C600008050040064910B591F82F20202A1CBF16
:101C7000887710BD40F2EA31702002F02BFA0000A4
:101C8000AC0F00202DE9F04F5B4E814685B096F8F1
:101C90002F008A4620284DD096F82F0006F10C041C
:101CA00000EB4000A6F5607808EBC00720208DF817
:101CB000000096F82E0003AA06EB800001A990F818
:101CC0002050306902903068484401F0A1F9F8686A
:101CD00001994A4A0844A9F1650191422FD8B9688F
:101CE000411A21F07F41B1F5800F28D220F07F40CA
:101CF0006060304684F80CA090F82E00EA46202D53
:101D00001CBF3F4901EB801B3CD005EB450008EBB5
:101D1000C0076068BA682146101A0002C21700EBBB
:101D2000126007F1080600121BD4708950B348896D
:101D300048B127E040F67B31702002F0CBF905B0C6
:101D40000120BDE8F08F2046FFF756FE01F044F970
:101D50003168081A0002C11700EB11600012332825
:101D600010DA8AF80050397D207B814205D802982C
:101D7000606005B00220BDE8F08F0BEB45004578B0
:101D8000202DC2D1052001F0FFFC1B4C4FF0FF308D
:101D9000A06094F82E309DF800202021202A13BF47
:101DA000052004EB830090F82000FEF7F9FF94F87B
:101DB0002E20134901EB821194F82F2001EB4201F0
:101DC0004870206848442060012084F82B00607E21
:101DD000012805D12069401E20F07F4001F01AFB48
:101DE0009DF80000202803D00648407802F042FA0F
:101DF00005B00020BDE8F08FAC0F00209B1FA107AD
:101E00002C0F002010000020064810B590F82F106D
:101E100020291CBF007E10BD40F67431702002F0F6
:101E200059F90000AC0F00200246144B10B50844CD
:101E30009A4204D940F20961702002F04BF9104A2D
:101E4000914204DD40F20A61702002F043F90D4A2C
:101E5000914204DA40F20B61702002F03BF90A492A
:101E60008142DEBF00F5F700A0F1F85010BD002858
:101E7000BCBFA0F5F70000F1F85010BDFF7F841E35
:101E80000020A10700E05EF80080841E104A0B1AB3
:101E900002F1010CB3EB9C0F3CBF1846704710B524
:101EA000441AB4EB9C0F3CBF184610BD9A4203D2B3
:101EB000101A0844401C10BDA24204D2511A084412
:101EC000401C404210BD40F60C31702002F002F977
:101ED000FF7F841E0E4910B591F82F00202812D0E4
:101EE00091F82F00A1F5607200EB400002EBC000FA
:101EF00091F82F10406801EB410152F83120BDE804
:101F000010400421104740F6BC01702002F0E2F8B6
:101F1000AC0F0020F8B56D4D6D49012605F56074D4
:101F2000082873D2DFE800F004679DAFCD44B4B950
:101F300094F82C0018B901F01BFF84F82C60E08A9B
:101F400010B102F04FF888B1FFF7BEFC84F82960A9
:101F5000A168B1F1FF3F05D001230322052001F064
:101F60003FFB40B1607E012810D109E04FF40761CA
:101F7000702002F0AFF840F67501702002F0AAF868
:101F80002069401E20F07F4001F044FA94F82F00B1
:101F900094F82F1000EB400005EBC000406801EB07
:101FA000410155F8312001B00121BDE8F040104752
:101FB000FFF78AFC4FF0FF30A06094F829008DF8FD
:101FC00000009DF8000088B194F82F0094F82F10BD
:101FD00000EB400005EBC000406801EB410155F803
:101FE000312001B00621BDE8F040104740F68601DF
:101FF000702002F06FF8FFF767FC84F8286001F0AA
:10200000F1FF20B194F82C0030B109E059E040F61E
:102010009601702002F05EF801F0AAFE84F82C60B0
:1020200094F82D0058B12B494FF40020086005208A
:1020300001F0AAFB01F0E8FE002084F82D0094F8DE
:102040002F0094F82F1000EB400005EBC000406813
:1020500001EB410155F8312001B00021BDE8F0400D
:10206000104701F049FCE08A10B101F0BBFF28B134
:1020700019480078032808BF6677F8BD40F6A1012B
:10208000702002F027F81548066088680660F8BDE1
:102090000878BDE8F84002F0EDB8FFF715FC94F8B9
:1020A0002F0094F82F1000EB400005EBC0004068B3
:1020B00001EB410155F8312001B00521BDE8F040A8
:1020C000104740F6B401702002F004F82C0C0020F8
:1020D0001000002008F50140120000200805004013
:1020E000034810B5407809F081FF80B210BD0000B0
:1020F000120000202DE9F34F8246DC488BB00068C7
:10210000DB4DC005C00D0ED0103840B20028B8BF5E
:1021100000F00F0000F1E020ACBF90F8000490F850
:10212000140D40090DD00C984FF0000B00780028DA
:1021300018BF012818D040F24F714FF0700001F025
:10214000C9FF95F82F004FF0010B202807D00C98FD
:10215000007848B140F24B71702001F0BBFF4FF4A2
:10216000E961702001F0B6FFC24C24B1002140F2B9
:102170005270AFF30080C0490AEB4A0001EBC00087
:102180004FF00108009024B1002140F25A70AFF3E3
:102190000080B8F1000F09D095F82E604FF00009CB
:1021A00085F82B90BBF1000F07D032E0B348002830
:1021B00018BFAFF3008062B6EEE73746012020EA91
:1021C0000706AF48402200EB871100EB86100AF0AB
:1021D0007BF824B1002140F2CD50AFF3008005EB35
:1021E000870105EB8600096A016224B1002140F2F3
:1021F000D150AFF3008024B1002140F26470AFF3FE
:10220000008095F82B008DF804009DF8040000284C
:10221000B9D124B1002140F26E70AFF3008001F01B
:1022200055F88046334606AA0C99FFF779FA24B18F
:10223000002140F27570AFF30080914906A801EBD0
:10224000861717F81A10012918BF02293CD10699E0
:10225000079BA1EB08018B4A21F07F41A3EB080308
:1022600023F07F43022971D3B1F5800F6ED29A42D9
:102270006CD34FF0010901AB05AA3146FEF748FFC8
:1022800000286BD09DF814109DF8042033468A4234
:1022900068D00520FEF784FD07EB4A0148709DF8E1
:1022A0001400202803BF05EB860080F820A080F8EA
:1022B000239007EB400018BF80F801A0324651463A
:1022C0005FF00300FFF7D2FB05EB860090F82300D8
:1022D0008DF804009DF8047024B1002140F27C7058
:1022E000AFF300806848002818BFAFF30080EFF319
:1022F000108872B624B1002140F28270AFF30080E2
:1023000095F82B008DF804009DF8040000287FF458
:102310003AAF24B1002140F28A70AFF300800DF192
:10232000180E00989EE80E1000F10800B9F1000F99
:1023300080E80E1044D024B1002140F29770AFF332
:102340000080BBF1000F2CD116E0FFE7324651466A
:102350000420FFF78BFB4FF00109B5E732465146E9
:102360000420AFE7202919BF07EB4100407805EBB7
:10237000860090F820008FE79FB195F82F00202865
:102380000FD124B1002140F29C70AFF300803146A0
:102390000220FFF79BFB20B90C980078F0B30128CE
:1023A0004CD024B1002140F2B970AFF30080BBF1F2
:1023B000000F18BF01204AD085F82B004FF001090B
:1023C00024B1002140F2CA70AFF30080B8F1000FD1
:1023D00045D024B1002140F2CE70AFF30080B9F1B6
:1023E000000F11D095F82E0005EB800090F8210029
:1023F000202809D024B1002140F2D570AFF300802D
:102400002248407801F036FF24B1002140F2DA7012
:10241000AFF300800DB04846BDE8F08FFFE724B170
:10242000002140F2A470AFF3008095F82E205146B1
:102430000420FFF71BFB4FF00109C1E7002C3FF41C
:10244000A2AE002140F2AF70AFF300809BE695F89A
:102450002E10012020EA010185F82E10ACE7074874
:10246000002818BFAFF3008062B6B2E704ED00E0C9
:10247000AC0F0020000000002C0C00200000000029
:102480002C0F0020FFFF3F00000000001000002084
:102490002DE9F14FA5488CB00068C005C00D11D0E2
:1024A000103840B20028B8BF00F00F0000F1E02063
:1024B000ACBF90F8000490F8140D400908BF4FF02D
:1024C000010901D04FF000090C98007800284FF066
:1024D00000001CBF0DB0BDE8F08FDFF854A2954D91
:1024E000954C4FF0000B0B9025B100214FF4CB60C1
:1024F000AFF3008094F82E6084F82BB04FF0000802
:1025000025B1002140F25D60AFF30080B9F1000F0A
:102510001DD13746012020EA07068848402200EBFB
:10252000871100EB861009F0CFFE25B1002140F2A3
:10253000CD50AFF3008004EB870104EB8600096AFD
:10254000016225B1002140F2D150AFF3008025B1E6
:10255000002140F26560AFF3008000F0B7FE07464F
:1025600033466A460C99FFF7DBF825B1002140F2AB
:102570006B60AFF3008094F82F00202814D02069FE
:102580000099091A0902CA1701EB126109120BD549
:10259000DDE90021891A20F07F42084420F07F40C5
:1025A000CDE900204FF001084DB1002140F27560E7
:1025B000AFF30080002140F27B60AFF30080009811
:1025C0000199C01BC91B20F07F4021F07F41B0F56D
:1025D000800F05D28A4503D3B9F1000F0CD103E077
:1025E000B9F1000F38D094E033463A466946544872
:1025F000FEF712FC48EA0008B8F1000F22D000985C
:1026000009F0F4FCBDF80A109DF808204D4B114468
:10261000491C4218984241D8494881425ADC4042FC
:1026200081425FDB581C9042DCBF02F5F702A2F149
:10263000F85205DD002ABCBFA2F5F70202F1F852FC
:102640000C98C26001200B90002D62D0002140F256
:102650008E60AFF300805CE0BDF80A0008AA07A90D
:1026600000F0D6FC94F82F0020281CD02069401DD3
:1026700020F07F40DDE90021891A014421F07F41EB
:10268000CDE9000109F0B2FCBDF80A109DF8082060
:102690002C4B11444A1C8118984218D940F2096108
:1026A000702001F017FDBDF80A0007F1090620B1FE
:1026B00001F098FC002808BF32362348417807987B
:1026C000814284BF081A064426F07F40D2E71C48A6
:1026D000824204DD40F20A61702001F0FBFC1B48DD
:1026E000824204DA40F20B61702001F0F3FC1848DA
:1026F0008842DCBF01F5F701A1F1F85105DD0029A1
:10270000BCBFA1F5F70101F1F8510C98C16001209F
:102710000B9094F82B008DF810009DF81000002805
:102720007FF4E2AE0B980DB0BDE8F08F04ED00E051
:10273000FFFF3F0000000000AC0F00202C0F002026
:102740000020A107FF7F841E1200002000E05EF839
:102750000080841E2DE9F14F884D8CB095F82E0035
:10276000002009900120864C4FF00009A5F1800758
:102770008046089024B1002140F2E970AFF3008058
:102780000898002837D000BF85F82B9024B100218D
:1027900040F2EE70AFF3008095F82EA0402228EAB8
:1027A0000A0607EB861007EB8A11834609F08CFDB9
:1027B00024B1002140F2CD50AFF3008005EB86003C
:1027C00005EB8A010090096A016224B1002140F200
:1027D000D150AFF3008095F82B008DF808009DF8DC
:1027E000080078B1002C1CBF002140F2F470C1D069
:1027F000AFF30080BEE76348002818BFAFF3008046
:1028000062B6C1E724B100214FF4FF60AFF300804E
:102810000C981BF81000032872D1DDF800A0CDF849
:1028200018A00C999AF82000884214BF4FF0000BB2
:102830004FF0010B0AF1200C8646202207EB86138D
:1028400003E0024603EB42004078884202D0202891
:102850000AD0F6E7202807D0864507D103EB4E00C3
:1028600040788CF8000007E048460CE003EB40009D
:1028700003EB42014078487024B1002140F2375008
:10288000AFF30080404610EA0B0F18BF8AF8238090
:10289000002852D024B1002140F2FD70AFF3008037
:1028A000324601200C99FFF7E1F8069890F82300D2
:1028B0008DF808009DF808A024B1002140F608001A
:1028C000AFF300803048002818BFAFF30080EFF36B
:1028D000108072B6089024B1002140F60D00AFF3CD
:1028E000008095F82B008DF808009DF8080040B195
:1028F000002C1CBF002140F611003FF43BAF77E7EE
:102900001BE0BAF1000F08D095F82F00202804D161
:1029100031460220FFF7DAF808B324B1002140F66F
:102920002500AFF3008095F82E0028EA000085F816
:102930002E0085F82B800120099024B1002140F65B
:102940002E00AFF30080089888B124B1002140F632
:102950003200AFF3008009980DB0BDE8F08F002C75
:10296000F1D000214FF40260AFF30080E6E70548A4
:10297000002818BFAFF3008062B6E6E7AC0F002076
:10298000000000000000000000000000202824BF1C
:102990000020704700EB4000034B43F8301003EB7E
:1029A000C0004260012070472C0C002010B5202888
:1029B00011D20E4991F82E30A1F1800202EB831C56
:1029C0001CF810303BB191F82E3002EB831212F854
:1029D0001020012A01D0002010BD91F82E200146C0
:1029E0000020FFF743F8012010BD0000AC0F0020CD
:1029F0002DE9F84F804E804696F82E00A6F180070C
:102A000007EB801010F81800002868D096F82E9078
:102A10007A4D25B1002140F6C130AFF3008007EBBD
:102A2000891414F81800012818D0C0B204281CBF5B
:102A30000528062858D02DB14FF0000140F6CD30C2
:102A4000AFF3008001F06CFC25B1002140F6D130DD
:102A5000AFF3008014F818000128E6D1012425B155
:102A6000002140F6D830AFF30080002C42D0002087
:102A700086F82B0025B1002140F6DD30AFF3008051
:102A800096F82EB0012020EA0B0907EB8B1107EB1B
:102A90008910402209F018FC25B1002140F2CD50E8
:102AA000AFF3008006EB8B0006EB890A006ACAF8D8
:102AB000200025B1002140F2D150AFF3008096F8FC
:102AC0002B008DF800009DF80000D0B1002D1CBF38
:102AD000002140F6E330C2D0AFF30080BFE740F6FC
:102AE000B831702001F0F6FA4A4641460120FEF75F
:102AF000BDFFA9E74248002818BFAFF3008062B6C7
:102B0000B5E725B1002140F6E730AFF300809AF831
:102B100021200AF1210114464FF0200B07EB891008
:102B20000AF1220A03E0A34600EB4B035C7844451C
:102B300002D0202C2BD0F6E7202C28D0A24204D1A2
:102B400000EB42004078087005E000EB440100EB28
:102B50004B0049784170BAF1000F11D025B1002126
:102B600040F22F50AFF300809AF80000A04207D146
:102B700025B1002140F23250AFF300808AF800B056
:102B80005DB1002140F23750AFF3008000E025B185
:102B9000002140F6EB30AFF300801A48002818BF40
:102BA000AFF30080EFF3108472B696F82B008DF827
:102BB00000009DF8000038B1002D1CBF002140F638
:102BC000F1303FF44CAF87E786F82E90012086F86D
:102BD0002B0054B1002D08BFBDE8F88F002140F64E
:102BE000FE30AFF30080BDE8F88F0548002818BF1D
:102BF000AFF3008062B6EDE7AC0F002000000000EC
:102C0000000000000000000070B50D46064601F00F
:102C1000D7F90F4890F82E200024803800EB82105E
:102C200010F8141029B1611CCCB2202CF8D320204C
:102C300070BD084804EB440140F8316000EBC1006E
:102C4000214645600120FEF711FF204670BD0000BF
:102C5000AC0F00202C0C00202DE9F04F83B000F0C9
:102C600035FB054600F0FEFD674CA068B0F1FF3F64
:102C70001CBF4FF0FF30A060A07FDFF890B1A8B973
:102C8000D4E90301081A0002C11700EB1160001219
:102C90004FF40C7109F0D7F921690844281A000291
:102CA000C11700EB11600012C00F13D0607E28B373
:102CB00094F829008DF800009DF80000F0B100F0B4
:102CC00013FC00BF94F82A00F0B140F24741702095
:102CD00001F000FA94F82F0094F82F1000EB400058
:102CE0000BEBC000406801EB41015BF8312008218B
:102CF00090474FF48661702001F0ECF9E81C20F059
:102D00007F4000F0E9FADDE74FF0010A84F82AA0DD
:102D100094F82F00202824D094F82F80202084F8C5
:102D20002F0084F83000002684F8286084F8296099
:102D3000374826600078022816BF032801200020AB
:102D4000207794F82E7004EB870999F8200020284A
:102D500031D000EB40000BEBC000817D012905D094
:102D600029E040F24A41702001F0B4F9AB4600F18D
:102D70000805408A01AA694600F04AF994F82F0034
:102D8000202804D02069401D20F07F400BE0688996
:102D90000BF1090B28B101F025F9002808BF0BF150
:102DA000320B2BF07F40D5E90021891A28600844B6
:102DB00020F07F40686039460120FEF787FE00283A
:102DC000F9D0144800EB871010F81800022804D13D
:102DD0003A4641460620FEF749FE84F82BA099F8B2
:102DE0002100202803D00C48407801F043FA207FCE
:102DF000002804BF03B0BDE8F08F00F07DFD26770A
:102E0000667703B0BDE8F08FAC0F00202C0C0020DB
:102E1000120000202C0F00201000002010B5324CB2
:102E200082B094F82F10202908D0A168B1F1FF3F9B
:102E300009D040F6E921702001F04CF940F6E82174
:102E4000702001F047F962680146284B50189A42F9
:102E500004D940F20961702001F03CF9244A914202
:102E600004DD40F20A61702001F034F9214A9142F8
:102E700004DA40F20B61702001F02CF91E49814206
:102E8000DCBF00F5F700A0F1F85005DD0028BCBF5D
:102E9000A0F5F70000F1F85001AA694600F0B8F873
:102EA0009DF804000F288CBF0120002000990844E1
:102EB00020F07F41A16094F829008DF800009DF872
:102EC0000000002804BF02B010BD0123032205202A
:102ED00000F086FB00281CBF02B010BD40F6F121B7
:102EE000702001F0F7F80000AC0F0020FF7F841E77
:102EF0000020A10700E05EF80080841E70B51E4C23
:102F0000202184F8201084F8211084F82210002059
:102F100084F8230084F82E0084F82F10421EA2604B
:102F20002060A07784F8280084F829002077607753
:102F300084F83010114984F82C0084F82D000870B2
:102F400048704880A4F182011022887001F8040FB3
:102F5000521EFAD10A4D012684F82A60FF202870FB
:102F6000084801F069F9687001F0C4F9A86000F040
:102F7000F1FC84F8316070BDAC0F0020120000201D
:102F8000100000202919000070B5044615460846B7
:102F900009F02CF80F4A011B531CB1EB930F24BF0F
:102FA000A4EB000CBCEB930F0BD38A4203D2111B92
:102FB0000844411C05E0624507D2101A2044401C19
:102FC000414201F10F00281A70BD40F60C3170200B
:102FD00001F080F8FF7F841E410B48F237625143B5
:102FE0000A0C094B510202FB03020848504300F54A
:102FF00086306E30400D5B4210FB03F3B2EB532F73
:1030000088BF491C08447047F7C2FFFF6F0C0100DE
:10301000430B48F2376C03FB0CF330B41B0CDFF8A6
:1030200044C05C0203FB0C030F4858434FEA505C5A
:1030300004EB0C0043F609541CFB04F404F5807CFB
:1030400043F60855A3EB5C2C2C440CF0FF0CB3EBBF
:10305000542F84BF4FF0000C401C086082F800C061
:1030600030BC7047F7C2FFFF6F0C01002DE9F04143
:10307000364CD4F804034FF4006610F4803F4FF050
:10308000E0274FF0000519D031480068B0B1C4F80E
:103090004051C7F880622F480068D4F80415401AE0
:1030A00020F07F40022802D3B0F5800F06D34FF402
:1030B0008030C4F808030420FEF72CFFD4F8040382
:1030C00010F4003F19D024480068B0B1C4F844514E
:1030D000C7F8806221480068D4F80415401A20F02F
:1030E0007F40022802D3B0F5800F06D34FF40030A2
:1030F000C4F808030520FEF70DFFD4F8040310F40C
:10310000802F08BFBDE8F08115480068002808BF7F
:10311000BDE8F081C4F84851C7F8806211480068E2
:10312000D4F80415401A20F07F40022804D3B0F5EB
:10313000800F38BFBDE8F0814FF48020C4F8080349
:10314000BDE8F0410620FEF7E5BE000000B00040FB
:1031500040B1004040B5004044B1004044B500409B
:1031600048B1004048B500402DE9F041384D28787D
:10317000042868D0E81C0122017859B1012908BF50
:103180006A7002D06978002958D002210170407815
:1031900000F0FAFA2F4CD4F804034FF0000810F4B2
:1031A000002F4FF480774FF0E0260AD02A480068BD
:1031B00038B1032000F0E8FAC6F880720320FEF769
:1031C000A9FED4F8040310F4802F0AD02348006825
:1031D00038B1022000F0D8FAC6F880720220FEF75B
:1031E00099FED4F8040310F4003F0AD01C4800688C
:1031F00038B1012000F0C8FAC6F880720120FEF74D
:1032000089FED4F8040310F4803F08BFBDE8F081C4
:1032100014480068002808BFBDE8F081002000F0D5
:10322000B3FAC6F8807204202870C5F80880C4F884
:103230000082BDE8F0410020FEF76CBE40F26A312A
:103240006C2000F047FFBDE8F0410720FEF762BEAA
:103250001C000020008000404C810040488100405C
:103260004481004040810040012211024FF0E023E0
:103270000020C3F8801103F5C073BFF34F8FBFF375
:103280006F8FC3F800110E4941F8042F431EC1F897
:103290000433C1F83C05C1F83C010A4BC3F84005B2
:1032A000C1F840011B1DC3F84005C1F844011B1DB6
:1032B000C3F84005C1F84801CA6003494870704727
:1032C00000800040048000401C000020014800688D
:1032D0007047000004B500402DE9F047474E054611
:1032E000F71E3278F968012A04BFA942BDE8F087C9
:1032F0004FF04040424B186042486FF48023C0F8C2
:10330000083300F104034FF00004002A61D06FF489
:10331000A02CC0F848C3C3F84045C0F844413A4B1C
:103320001B684FF0E0294FF00108002B04BF4FF459
:103330000063C9F880324FF48033C0F80833C0F816
:103340004833C0F84041D0F80435EB1A23F07F43EE
:10335000022B4BD3B3F5800F48D2C0F840554FF441
:103360008033C0F8443332B1D0F804258A1A22F0F1
:103370007F42022AF8D3C7F808803C70FFF774FF39
:103380002248D0F8041564F30101C0F80415D0F800
:103390000825022161F30102C0F80825D0F81025A4
:1033A000042161F30302C0F81025C0F80C80B9684D
:1033B000C0F800128015C9F88002C9F8000114494C
:1033C000C00508600420FD60707086F80080BDE8CC
:1033D000F0876FF4802CC0F848C3C0F84045C0F8AF
:1033E0004041C3F84045C0F8444198E70021C0F887
:1033F00040154FF4FA716C2000F06CFE1F000020A5
:1034000008F5014000B0004048B100400080004095
:1034100004F5014070B52C4CE268824214BF0121D2
:103420000021DFF8A8C09CF80050022D02D000292E
:1034300037D002E0002908BF70BD617881B3244B0A
:103440004FF0804119608B132249C1F80833C1F84D
:1034500048330023C1F84031D1F80435C31A23F0B2
:103460007F43022B27D3B3F5800F24D2C1F8400548
:103470004FF48033C1F844333DB100BFD1F8043577
:10348000D31A23F07F43022BF8D3134B02214A07B0
:103490001A60E06004208CF801008CF8001070BD08
:1034A00004E040F202216C2000F014FE40F20621FC
:1034B0006C2000F00FFE0020C1F8400540F2122100
:1034C0006C2000F007FE00001C0000201F00002000
:1034D00008F5014000B0004004F501400148C06813
:1034E000704700001C0000202DE9F04136496FF4C0
:1034F0008020C1F80803354D0B1D0022287868B1E3
:103500006FF4A02CC1F848C3C3F84025C1F844218A
:103510002F4B1B684FF0010C9BB90CE06FF4802C13
:10352000C1F848C3C1F84025C1F84021C3F840257F
:10353000C1F84421ECE74FF0E0244FF40063C4F8F5
:103540008032022804D040F21E216C2000F0C2FD1F
:10355000D1F804051F4CC01C20F07F40E3681E4ECC
:1035600098420CD0D1F80475DF1B27F07F47042F59
:1035700005D3B7F5800F02D2FFF7AEFE1FE0D1F8FA
:103580000405181A20F07F40022815D3B0F5800FEB
:1035900012D212494FF080400860C4F808C022706F
:1035A000C6F804C0C6F80CC04000091F086004201B
:1035B000687085F800C002E0C4F808C02270A068F6
:1035C000C6F80002BDE8F08100B000401F000020F6
:1035D00048B100401C0000200080004008F5014078
:1035E0002DE9F047DFF890C1002601279CF8004044
:1035F0009CF801C04FF4A07507287BD2DFE800F0EB
:10360000040404046C6C6C00DFF87081D8F80C9032
:10361000B9F1807F04BF98F80180B8F1000F02D0A3
:10362000022C05D02CE040F251216C2000F052FD1C
:10363000ACF1040808F0FF0805EB880505F18048A7
:1036400008F530480025012C02D0022C0BD014E0E4
:10365000BCF1040F24BFD8F80090B9F1000F08BFE7
:103660004FF0004509E0BCF1040F24BFD8F80090EA
:10367000B9F1000F08BF45F0804515F0804FE1D14A
:103680003F4C00F1100C07FA0CFCC4F808C304EB23
:103690008005C2B14FF0400808EB800808F0FF0831
:1036A000A044C8F8007004EB8000D0F84005A1EBFE
:1036B000000020F07F40824298BFB0F5800F28BF05
:1036C000C5F8406550D2C5F84015012B08BFC4F8B5
:1036D00004C30120BDE8F08734B1844504D14FF420
:1036E0001D716C2000F0F6FCA0F1040C0CF0FF043E
:1036F000012B00E03BE00CBF4FF001084FF0000849
:10370000032C04D340F24D116C2000F0E3FCDFF8F1
:1037100074C004F1100307FA03F3CCF80833CCF8B3
:10372000483305EB84044CF80460001FC0B20CEB76
:1037300080006AB1DCF804450C1B24F07F44A242EF
:1037400098BFB4F5800F24BF0021C0F840150BD2FC
:10375000C0F84015B8F1000F18BFCCF80433CCF80E
:1037600044330120BDE8F0870020BDE8F08740F237
:1037700079216C2000F0AEFC1F0000201C0000200E
:103780000080004000B000402DE9F84300264FF4CF
:10379000A0774FF00108072851D2DFE800F00404B9
:1037A00004041919190000F1100108FA01F2264960
:1037B000C1F8082301EB80030022C3F8402507EB82
:1037C00080028E50214951F820000090BDE8F88316
:1037D0001F4D011FCCB2297879B16A7882420CD191
:1037E0001C4A4FF040401060012908BFFFF73CFD24
:1037F0002E7019494FF08070C86004F1100008FA6B
:1038000000F11648C0F80813C0F84813A10001449D
:10381000D1F84015D0F80425891A21F07F410229FA
:1038200007D300EB84020021C2F8401507EB8401A6
:1038300046500B4850F824000090BDE8F88340F251
:10384000F1216C2000F046FC0080004040810040E7
:103850001F00002008F501401C00002000B00040BF
:1038600040B1004020496FF48020C1F808031F4890
:103870000A1D037800205BB16FF4A023C1F8483320
:10388000C2F84005C1F844011949096899B90CE02A
:103890006FF48023C1F84833C1F84005C1F84001F6
:1038A000C2F84005C1F84401EEE74FF0E0224FF4C2
:1038B0000061C2F880120F494FF0FF32C1F80823AF
:1038C000C1F84005C1F840010A1DC2F84005C1F821
:1038D0004401121DC2F84005C1F84801121DC2F88A
:1038E0004005C1F84C01704700B000401F000020A7
:1038F00048B1004000800040084890F902000028CC
:10390000B8BF704700F01F01012202FA01F140091F
:10391000800000F1E020C0F8001270471C00002079
:1039200010B507280DD2DFE800F0040404040606F1
:103930000600064902E0001F0549C0B201EB800005
:1039400010BD40F29D216C2000F0C4FB408100407E
:1039500040B1004010B51C48002404210470C01E72
:1039600001708905C160FFF77FFC4FF0E0234FF441
:1039700000624FF0010CC3F88021BFF34F8FBFF3FB
:103980006F8FC3F880221148C0F804C0C0F808C087
:10399000D0F804150029FBD1491EC0F80813C0F85F
:1039A0004813C0F84045C0F840410949C1F84045B6
:1039B000C0F84441091DC1F84045C0F84841C3F86A
:1039C0000021C0F800C010BD1F00002000B0004062
:1039D00004B000402DE9F041164C607A002827D051
:1039E0004FF480718D05284608F051FB80464FF456
:1039F0008271284608F04BFB00260746B8F1000FFD
:103A000009D00120C5F80803207920B12671E069AA
:103A100008B18047E66137B1C5F804610220C5F8F6
:103A2000080300F08BFA4046BDE8F04100F05AB8B8
:103A3000BDE8F0812C00002010B508F0D2FB30B9B1
:103A400008F0F0FB18B908F023FC002802D0024966
:103A50000220086010BD0000340C004070B500F07A
:103A600087F900F0BFFA094C4FF0804530B1FFF7FD
:103A7000E3FF012028610420A07204E00320A0726B
:103A80000120C5F804030020E07170BD2C00002067
:103A900070B5134CA079F0B1012803D0E179401E34
:103AA000814218DA00F09EFA054600F083FBA17906
:103AB000012902D9E179491CE1710DB1616900E088
:103AC0002169411A022902DA11F1020F07DC0DB156
:103AD000606100E02061BDE87040FFF7BFBF70BDCE
:103AE0002C0000202DE9F04706464FF080454FF4AA
:103AF0008671284608F0CBFA80464FF48871284634
:103B000008F0C5FA274C8246277804F1080008F02F
:103B100032FB10B14FF4D57116E04FF0010946B1F8
:103B2000A07A032805D10420A072FFF785FFC5F80D
:103B300010900026B8F1000F18D0C5F80C61A07ADB
:103B4000042804D04FF4DE716D2000F0C3FA08F0B1
:103B500048FB28B908F066FB10B908F099FB08B1DA
:103B6000114806600220A07200F0E6F8BAF1000FDA
:103B700008D0C5F81061A07A022801D1FFF788FFAC
:103B8000C5F814903FB12670A07A022801D1FFF742
:103B900065FF00F0D1F8BDE8F0470248083008F0B2
:103BA00001BB00002C000020340C00402DE9F04740
:103BB0005C4C4FF000080646C4F8188043788278C1
:103BC0000078E07263710127A271BD0784F8078055
:103BD000052824D2DFE800F00F03051F2100A761AC
:103BE00009E000F0C5F80121284608F055FA002840
:103BF000F9D00220A06108F07BFAB0B100F00CFA15
:103C0000217E01F0030188420FD1B07950B102202A
:103C1000C5F804036AE04448ECE74448EAE740F2A8
:103C20002D3149E000F0CCF960E0EF604FF4827A8A
:103C3000C5F80481A069C5F8180508F0BEFA40B9B6
:103C400008F0C5FA28B908F0D9FA10B908F0EAFA6C
:103C500038B14FF080513648D1F84412C1F34231A7
:103C6000016008F0AAFA40B908F0B1FA28B908F0E2
:103C7000C5FA10B908F0D6FA10B12D481030076017
:103C8000AF600220C5F80403B07978BBD5F804030F
:103C900010F0020F0ED0DFF89C90D9F80010C94345
:103CA00041F30017D9F8001041F01001C9F80010D5
:103CB0007F1C07E040F2EE216D2000F00BFA00BF00
:103CC00000F02EFB5146284608F0E1F90028F7D015
:103CD00000F076F92FB9D9F8001021F01001C9F8D9
:103CE00000100220C5F80803C5F80481A07970B15E
:103CF000307860B900F076F9064600F05BFA6FF0B4
:103D0000004216B1C4E9042001E0C4E90402012123
:103D1000284608F0C1F908B100F05EF984F80A807D
:103D2000BDE8F0872C000020010002000100030024
:103D30003C05004010ED00E010B5EFF3108472B6C2
:103D40000A48417829B14178491E4170417829B12A
:103D500008E040F20D116D2000F0BCF9807808B940
:103D600000F04EF9002C00D162B610BD2C000020EE
:103D700010B5EFF3108472B606484178491C4170C3
:103D80004078012801D108F09EF9002C00D162B6DC
:103D900010BD00002C000020054810B5C17821B1ED
:103DA00000210171C170FFF7C7FF002010BD0000A6
:103DB0002C00002070B50C4CE17861B90125E5704C
:103DC000E061FFF7D5FF00F00DF930B1E06910B107
:103DD00080470020E061002070BD4FF080402571D9
:103DE000C0F80453F7E700002C000020EFF3108028
:103DF00072B604498A78521C8A70002800D162B6D3
:103E0000704700002C00002010B5EFF3108472B64C
:103E10000A48817829B18178491E8170417829B199
:103E200008E040F225116D2000F054F9807808B9BF
:103E300000F0E6F8002C00D162B610BD2C00002086
:103E40002DE9F04104006FF015003CD021780429E1
:103E500039D80029617838D0002934D1A1780029D7
:103E600031D1002008F0DEF8002008F0CEF84FF045
:103E700080484FF0FF31C8F808130026C8F80061E9
:103E8000C8F80461C8F80C61C8F81061144F7E705E
:103E9000A088B88108F00EF9012508B1FD707D7089
:103EA0000121404608F0F8F808B100F095F82046E6
:103EB000FFF77CFE7D72002008F0A7F84FF0E021AC
:103EC0003046C1F80051BDE8F0810029FBD020291F
:103ED000F9D8A1782129F6D80129C2D1F3E7000049
:103EE0002C00002001488089704700002C00002031
:103EF00010B50D4808F03FF90B49083948B10120C9
:103F000008704FF0E021C1F80002BDE81040FFF753
:103F10002FBF887A022801D1FFF7A0FDBDE810402D
:103F2000014808F03FB90000340000200248807AC0
:103F3000002800D0012070472C000020F8B51F4D4C
:103F4000E87A00280FD1287E00F0030008F0C0F8BE
:103F5000002808D0EFF3108172B6FFF7E7FF18B121
:103F6000002900D162B6F8BD0126AE7201B962B671
:103F700018204FF08044C4F80803A6614FF4207065
:103F8000ADF80000BDF80000411EADF80010F9D2F8
:103F90000027C4F80C71C4F810710848083008F004
:103FA000FDF82F70FFF75AFD6661687900F07F0019
:103FB000C4F838051820C4F80403F8BD2C0000200C
:103FC00010B5044C207E00F0030008F081F80028B2
:103FD000F8D010BD2C000020014901200870704766
:103FE000900200204FF08040D0F8000118B903483B
:103FF0000078002800D001207047000090020020C7
:104000004FF08040012141600021C0F800110148BB
:1040100001707047900200200248006800F0030021
:10402000704700001C04004010B531B1012907D0D1
:1040300040F2023105A000F021F8D0F8140401E0AC
:10404000D0F8080400F0010010BD00006E72665F39
:10405000636C6F636B2E6800BFF34F8F0548016878
:10406000054A01F4E06111430160BFF34F8F00BFC7
:10407000FDE700000CED00E00400FA0572B6034A0B
:10408000526802B19047FFF7E7FF00004C000020A4
:10409000064810B50021016001210160084608F0C2
:1040A0003EF8BDE81040012008F02CB8FC1F00408D
:1040B000074810B501214160891EC0F808130C2083
:1040C00008F02DF8BDE810400C2008F01BB80000E7
:1040D00000C000400EB572B60F4A5568D5B1002237
:1040E00003466E460A2403E0B0FBF4F0521CD2B241
:1040F0000028F9D1B05409E0B3FBF4F004FB103010
:10410000B3FBF4F3521ED2B23030B054002AF3D1D4
:104110003046A847FFF7A0FF4C00002070B5174CB1
:1041200006460D46607810B14FF0FF3070BD06B9FD
:10413000134E62602570FFF7ABFFFFF7B9FF304603
:10414000FFF77EFE0600F1D1FEF7D8FEFFF7F6FE80
:1041500007F032FF284607F0D5FF0120002D09DBCC
:1041600005F01F0100FA01F16A09920002F1E02254
:10417000C2F800116070304670BD00004C00002095
:1041800040C1000001484078704700004C0000200A
:10419000074890F90000002809DB00F01F02012108
:1041A00091404009800000F1E020C0F80012704703
:1041B0004C0000202DE9F04101264FF0E0223103B0
:1041C0004FF000084046C2F88011BFF34F8FBFF395
:1041D0006F8F164CC4F800010C2007F0BFFF144D80
:1041E0002868C04340F30017286840F0100028609A
:1041F000C4F8046326607F1C02E000BF00F090F862
:10420000D4F800010028F9D01FB9286820F0100068
:104210002860084805686660C4F80863C4F800812F
:104220000C2007F09BFF2846BDE8F08100C000404D
:1042300010ED00E008C5004010B5024605200C490D
:1042400004E000BF01EBC0031B7933B1401EC0B2D4
:10425000F8D248216920FFF73DFF41F8302001EBFB
:10426000C00100224A718A7101220A7110BD00004A
:10427000E00F002010B5052801D3582106E00A49B7
:1042800001EBC0000179012903D059216920FFF712
:1042900021FF41798279491CC9B28A4200D041711B
:1042A000BDE81040FFF774BFE00F002070B5052592
:1042B0000E4E0F4C16E0217806EBC1000279012A60
:1042C00008D1427983799A4204D04279827156F8B2
:1042D000310080472078401CC0B22070052801D3EF
:1042E000002020706D1EEDB2E5D270BDE00F002001
:1042F0009102002000B507F060FF40B907F067FFAA
:1043000028B907F07BFF10B907F08CFF08B102480D
:1043100000BD024800BD00000C05004000E7014060
:1043200010B507F07FFF30B3EFF31080C8B1002164
:1043300072B6124802680368C2F3001243F0100319
:1043400003604FF0E023D3F80042D3F804321C435B
:1043500000D040BF20BF00BF00BF00BF00BF12B1F0
:1043600005E00121E4E7026822F010020260002962
:1043700000D062B610BD20BF10BD000010ED00E0FF
:1043800095C40000B1C400009FC40000ABC400008D
:1043900099C4000093C4000091C40000B7C4000099
:1043A000A5C400008BC4000083C4000087C40000C3
:1043B0007DC40000014800680068004754000020E8
:1043C000014800680069004754000020014A126853
:1043D000926810475400002001480068C0680047F8
:1043E00054000020014A126852681047540000200F
:1043F00001490968096A084754000020014800780B
:1044000070470000920200201FB5174C207A022846
:1044100000D202208DF80100E079032800D20320A9
:104420008DF80000A079ADF804006079ADF80200C5
:10443000684606F05BF908B1842110E0E06802905C
:1044400002A806F069F908B1882108E00748006869
:10445000039003A80BF020F9002803D08C2103203F
:1044600000F0E4F81FBD0000081000201447000011
:1044700010B528B11422044907F026FF002010BD12
:104480006FF0150010BD00003047000070B503004C
:104490006FF02C0003D1294C63780BB1801170BDF3
:1044A00009B36FF015057AB3254B0C2941D2DFE82B
:1044B00001F04006090C10131B2316262C3110782E
:1044C00018702BE01078587028E01068C3F80500C9
:1044D00024E01068D86021E0107898701EE0117810
:1044E0000029DCD1D97019E0E07810B110780228E9
:1044F0001FD31078187411E0108858820EE01178DC
:104500000029CCD1197109E013E01078022810D3EA
:10451000187503E011780029C1D1597501220849A5
:10452000002007F0CAFFB0F5803F04DB6FF00B00FE
:1045300070BD284670BD0121A17070BD58000020DB
:104540000810002070B50C46050019D0C4B100F069
:1045500015F9C0B12846FFF76FFE0C4D00220C493B
:104560002870204607F0A9FF0BF0FFFC00212878F7
:1045700006F012FBFFF748FF01206870002070BDB5
:104580006FF0150070BD4FF0FF3070BD5800002077
:104590000810002030B587B005000CD0FFF7F2FD01
:1045A0004FF0FF3420B1FFF79DFCB0F5FA7F05D93D
:1045B000204607B030BD6FF01500FAE7154C1648DD
:1045C000656000F0EBF900206070A070E0700146BB
:1045D0001822684607F0F2FE18221049684607F0D4
:1045E00073FE182269460E4807F06EFEEFF3108442
:1045F00072B60C486FF00C0100F09EFD0A4800F006
:104600006BFE18B19A21032000F010F804B962B6CD
:104610000020CEE7580000200944000018470000A1
:104620000810002000C00040A94700000EB572B677
:10463000154A5568D5B1002203466E460A2403E0A8
:10464000B0FBF4F0521CD2B20028F9D1B05409E00A
:10465000B3FBF4F004FB1030B3FBF4F3521ED2B200
:104660003030B054002AF3D13046A847BFF34F8F03
:1046700006480168064A01F4E06111430160BFF396
:104680004F8F00BFFDE70000580000200CED00E058
:104690000400FA05064810B581784078014302D03D
:1046A0004FF0FF3010BD06F097FA002010BD00005B
:1046B00058000020064810B581784078014302D0A8
:1046C0004FF0FF3010BD06F03FF8002010BD000095
:1046D00058000020064810B581784078014302D088
:1046E0004FF0FF3010BD0BF0A7F9002010BD000007
:1046F00058000020064810B581784078014302D068
:104700004FF0FF3010BD06F079FA002010BD000018
:10471000580000200100000001010100001B1B03E4
:10472000020000004C1D000003001F0000000000FC
:104730000EE7C56667183CACB3D2CC81A3DCF1C0F0
:10474000C0360222054A10B5526812B1BDE81040C9
:10475000104783210420FFF769FF0000201000208C
:10476000054A10B5926812B1BDE810401047892182
:104770000420FFF75BFF00002010002005480168BF
:1047800029B1416819B1806808B101207047002043
:10479000704700002010002002490DC881E80D007C
:1047A0000020704720100020F8B5124C0026256824
:1047B00011E00098022802D003280CD106E02068FE
:1047C00010B10020266005E028210CE0206868B1C7
:1047D00001202660A847684600F050FD0028E8D078
:1047E000052805D035210420FFF720FF2D21FAE709
:1047F000F8BD0000600000207CB51F4C0546207805
:1048000040B1A278611C2846921C07F05DFD002093
:10481000207021E0194802F037F800281DD0174C0D
:104820002078112804D10A213E2007F0EBFE18B1B0
:104830002078082805D009E01049284608F0EAF851
:104840000AE005213E2007F0DDFE38B10B4928467D
:1048500007F036FF002800D001207CBDA088ADF80D
:10486000000001A9684608F0F3F90028F5D09B2163
:104870000820FFF7DBFE0000BE110020BC10002066
:1048800070B50A7882703AB3012A25D813230370D1
:1048900000230AE001EB430400EB4305A678EE7029
:1048A0006488240A5B1C2C71DBB29342F2D3002390
:1048B0000BE000BF01EB430500EB43042E7966716A
:1048C000AD882D0A5B1CA571DBB29342F2D30121A6
:1048D00001EB8200C0B270BD002070BD01210C4A06
:1048E00040280CD2202803D8401E8140106802E0E6
:1048F000213881405068014207D100207047FF28CD
:1049000003D0403881409068F5E7012070470000EF
:10491000640000200121401E81400448C06801421B
:1049200001D0012070470020704700006400002083
:1049300001490068C86070476400002004490268AB
:10494000406842F48C220A60024A10434860704773
:1049500064000020F8074002014900688860704741
:104960006400002005484FF0FF310160C90C416030
:10497000002181601F21C160704700006400002099
:1049800010B5FFF7EFFF0AF0CBFF044602480068BE
:1049900000B18047204610BD740000200149086026
:1049A0007047000074000020022101804180002136
:1049B00001710E2141714CF2E751C18001498160C2
:1049C000002070476667183C3EB50446694608F00B
:1049D0009DFC70B140F25A2108E000BFBDF8040010
:1049E000214600F0ABF820B140F25F211720FFF71D
:1049F0001DFE684600F052F80028EFD03EBD0000D2
:104A000010B5022804D34FF4D6711720FFF70EFE1D
:104A10000149085C10BD00002C100020F8B505000D
:104A2000009510D00026087849780446A14200D9A4
:104A30000C46EA1C22F00302AA4206D040F2791189
:104A40001720FFF7F3FD0126EDE7134F387079705B
:104A50003146684600F0EEF800210B460098C01C75
:104A600020F0030000906EB907EB8102D0600020B7
:104A700006E000BFD2F80CC04CF82030401CC0B299
:104A8000A042F7D30098491C00EB8400C9B2009003
:104A90000229E3D3401BF8BD2C10002070B504465A
:104AA00008F0ADFD08B1102070BD257800F0FEF8CB
:104AB00002460C48618800EB85000EE0C36853F89D
:104AC000213043B14A1C6280A180C06850F82100A7
:104AD000A060002070BD491C89B29142EED3618074
:104AE000052070BD2C1000202DE9F04121B10129D5
:104AF00002D00020BDE8F0810F4C00273B464FF666
:104B0000FF7604EB810514F801C00AE0DC19D5F842
:104B10000CE0A4B25EF824E0BEF1000F04D05B1CF0
:104B20009BB29C45F2D8344604802046B442E0D083
:104B3000BDE8F04100F034B82C1000202DE9F04120
:104B40000646A0F57F400C4643F20207FF3820D00E
:104B5000022C02D30720BDE8F081304600F05AF85D
:104B6000050016D00C48294650F8242030469047BE
:104B70000A48002100EB8407F86840F82610204618
:104B800000F08AF802462946786808F09EFB00206B
:104B9000E1E73846DFE70000CC4C00002C10002095
:104BA0002DE9F04190460D46074608F0C0FB48B19C
:104BB000164800EB8506F06850F8270028B14FF43E
:104BC0009D7115E040F2391112E0706800281AD08A
:104BD000284600F061F80146706808F028FB0400E0
:104BE00010D0F068022D40F8274004D340F2451160
:104BF0001720FFF71BFD06484246214650F8253096
:104C0000384698472046BDE8F08100002C1000206F
:104C1000C44C000070B50C46054608F088FB00281F
:104C200005D0034800EB8400C06850F8250070BD33
:104C30002C1000202DE9F843164E88460546002426
:104C40002868C01C20F003002860204600F024F8EB
:104C5000315D4843B8F1000F01D0002200E02A681E
:104C60000146009232B100274FEA0D0008F00CFB1C
:104C70001FB106E001270020F8E706EB8401009A47
:104C80004A602968641C0844E4B22860022CD7D327
:104C9000BDE8F8832C100020034931F810004FF6CE
:104CA000FC71C01C08407047C04C000003490878E4
:104CB0004978884200D20846704700002C10002036
:104CC0001802D40043D3000043D3000003EF0000D8
:104CD000F1E200002DE9FF4F264C804681B02068AC
:104CE0009A46934658B1027A424503D9416851F831
:104CF000280040B143F2020005B0BDE8F08FA521C5
:104D00001820FFF793FC1946029808F032FB86B290
:104D100058460E9908F024FB85B27019001D87B221
:104D20002068A1463946006808F081FA04001FD0C7
:104D3000678025802946201D0E9D07465A4601237F
:104D4000009508F0D4F92088314638440123029AAE
:104D5000CDF800A008F0CBF92088C119384608F03A
:104D6000F7F9D9F800004168002041F82840C3E76E
:104D70000420C1E77800002070B5144C23688BB183
:104D8000197A814212D95A6852F8201071B100255F
:104D900042F820504A88186808F097FA21680020E5
:104DA0000A7A0CE0C8211820FFF740FC43F2020009
:104DB00070BD4B6853F8203033B9401CC0B28242FA
:104DC000F7D8086808F076FA002070BD7800002057
:104DD0002DE9F0410D46040090464FF0000609D041
:104DE0000027E01C20F00300A04205D086211820F7
:104DF000FFF71CFC0127F4E7CDB11146002008F0B5
:104E000043FA0C3000EB85068FB90A4F04F10C0011
:104E1000AA003C602572606000EB850020600021E4
:104E2000606807F0CBFA4146386808F02DFA304642
:104E3000BDE8F0817800002070B5084D2868002892
:104E40000AD0002404E02046FFF796FF641CE4B279
:104E50002868007AA042F6D870BD000078000020D3
:104E6000094910B502460968002049B10B7A9342FE
:104E700005D9496851F82210002900D0081D10BD3D
:104E8000EE211820FFF7D2FB780000200A4910B568
:104E900002460968002059B10B7A934207D9496844
:104EA00051F82210002902D031F8040B084410BD3B
:104EB000FC211820FFF7BAFB7800002070B51E4BCC
:104EC000456804460022A1B101206070588881081D
:104ED0005FF0000004EB400304EB80061A831984A2
:104EE00000FB015373602318401C1A750428F1D38A
:104EF00070BD62705FF0000004EB40010A830A8419
:104F000004EB80014A602118401C0A750428F3D381
:104F10005888B0F5FF7F01D2460800E0FF2608F070
:104F20009BFA656020842918A1606684E560A084EE
:104F30002161E68470BD00007C0000202DE9F04175
:104F400070B100251144CCB2244EC11C002721F0C1
:104F500003013470814205D04E210920FFF766FB22
:104F60000125EFE71F2B04D84FF6FF7101EA8301FB
:104F700009E05900FF2B0BD903F1FF02B2EB430FFD
:104F800000D2114689B2C91C21F0030335B107E0F4
:104F90007C22B2EB430FF5D37C21F3E77060738082
:104FA00004EB840107EBC102002176684FF0010C8D
:104FB0000DE04DB901EB810700EB020E06F837C09A
:104FC00006EBC707C7F804E0491C1A44C9B2A1425E
:104FD000EFD3D21D22F00700BDE8F0817C00002055
:104FE00070B5104A00205168127814E000EB80037D
:104FF00011F833306BB100EB800011EBC0040CD022
:105000000025A57001212046FFF758FF2570204696
:1050100070BD401CC0B29042E8D3A9210920FFF71F
:1050200005FB00007C000020044810B5408884087F
:1050300008F012FA844200D3204610BD7C00002004
:10504000094910B507480860084B112003EBC0045C
:105050000022C4F81025C4F81425401CC0B214283E
:10506000F4D310BD0000FEFF08F5014000F0014040
:1050700070B520240021012320FA01F2D20720D0AC
:105080004AB2002A10DB00BF4FEA52164FEA8606EA
:1050900002F01F0506F1E02603FA05F5C6F8805177
:1050A000BFF34F8FBFF36F8F0BDB02F01F054FEA8B
:1050B00052124FEA820202F1E02203FA05F5C2F829
:1050C000805201F10101A142D6D370BD70B54200FA
:1050D0004FF0000101D5144A1160C0F38032C0F3D3
:1050E000C0339A4203D069211B20FFF79FFA10F4C6
:1050F000404F14D00D4A01205060831EC2F808337F
:105100000B4A9060C2F80012C2F80833094C2160C3
:10511000251D28609060C2F8083321602860BDE832
:105120007040FFF78DBF000004E5014000E0004043
:1051300000F0004000F5004070B50A4C0D462060BC
:10514000FFF7C4FF2068FFF793FF00F083F8FFF735
:1051500077FF08F049FA284600F0B6F8BDE870403D
:1051600000F0CEB8840000202DE9F14F364C82B01B
:10517000D4F804B50126354806F0FDFFDFF8CC90E1
:1051800020B9002609F1010007F00CF84FF48075F2
:105190004FF000082F1D01216160C4F80081C4F8A0
:1051A00004810298C4F804052160DFF8A4A01CE083
:1051B000DAF80000C00618D50E2008F001FAEFF367
:1051C0001080009072B603212046C4F804132946CB
:1051D00008F003FA30B93946204608F0FEF908B95C
:1051E000FFF79EF8009800B962B62946204608F0FD
:1051F000F4F928B93946204608F0EFF90028D7D04D
:105200003946204608F0E9F90028C4D136B1C4F87F
:1052100004B509F1010006F0AEFF12E009F101004A
:1052200006F0A9FF0028ADD10320C4F80803C4F894
:105230000481C4F800810E2008F0C2F9034806F08A
:10524000B1FF0020BDE8FE8F00E000409302002087
:1052500010ED00E010B5084806F0A0FF08B12521C8
:1052600006E00548401C06F099FF002803D02921DC
:105270001D20FFF7DBF910BD9302002070B5114926
:105280000A68EAB100231D4601244A68521C4A609C
:10529000092A00D34D600E7904FA06F20E68164210
:1052A0000BD0EFF3108372B60C6894430C6003B913
:1052B00062B649680160002070BD5B1C092BE4D315
:1052C000052070BD88000020024800210160416077
:1052D000704700008800002010B5084C617809B1C3
:1052E0000F2010BDFEF7A8FF2070FF2801D000207E
:1052F00010BD76211F20FFF799F9000090000020D3
:105300000149002048707047900000200648074A75
:10531000818C5288914204D190F8220008B100207B
:105320007047012070470000C01200207802002062
:105330000149488070470000780200200848094A67
:10534000818C5288914209D14FF6FF71818410F807
:10535000221F19B100210170012070470020704701
:10536000C012002078020020074810F8221F0129EF
:1053700007D0012101700548034900888884012075
:105380007047002070470000C01200207802002003
:105390000649074B8A8C5B889A4205D191F82220F6
:1053A00012B101600120704700207047C012002038
:1053B0007802002009498A8CA2F57F43FF3B02D086
:1053C0000021016007E091F822200449012A02D05F
:1053D000016001207047002070470000C0120020CB
:1053E000014908807047000078020020054900202C
:1053F00081F822004FF6FF708884034908804880B6
:1054000070470000C01200207802002005498A8CF5
:10541000824205D1002081F822004FF6FF70888477
:1054200070470000C01200200A4A10B1012807D0BE
:105430000EE0507860B1D2F802000860D08804E035
:10544000107828B1906808609089888001207047A2
:105450000020704795020020084A012338B1012836
:1054600004D11370086890608888908170475370E9
:105470000868C2F802008888D08070479502002032
:10548000064910B1012802D005E0487800E008780C
:1054900008B10120704700207047000095020020ED
:1054A00001494874704700001A0C00200148C07878
:1054B00070470000AC0000200148007970470000F0
:1054C000AC00002078B513494A7C0AB30A7C8DF8F9
:1054D0000020009A00929DF80020CAB1002301F13B
:1054E00010021A24A1F152050E7C8DF80060009E76
:1054F00000969DF800604EB1137043700470D5F8AB
:105500005A604660D5F85E608660EDE7012078BDA0
:10551000002078BD1A0C002010B5044600F056F9A2
:1055200018B1BD212720FFF781F80348012108F0B9
:1055300023FC0248C46210BDF80B0020AC00002020
:105540000149012088717047AC0000202DE9F04727
:105550005F4D089C2E78002E6BD1002A69D0002B5D
:1055600067D0002C65D005F11406C5E90E0186E868
:105570001C000027AF716F71EF70AF702F71AF819A
:10558000EF8100F05BF9064600F052F9044606F0A0
:1055900025F805F0B9FC94F96E0006F0A5F804F1C1
:1055A000180006F07FF9206906F072F996F82300DA
:1055B00006F096F905F13800406890F8740108B1DA
:1055C00005F056FF94F86B10012005F081FE0028CD
:1055D00076D0404805F0F8FE2088FFF757FC286396
:1055E0002088FFF73DFC06F160016863DFF8E89072
:1055F00091E80E1009F1080888E80E10316FC9F81B
:105600002110716FC9F8251000F08AF90146208F2A
:10561000BA4608F049F9A18E814200D208462872A4
:10562000A84694F86B10E08FF77CA58F082904D169
:1056300002E04FF48A7147E0042108F035F90FB910
:10564000001D80B2854200D22846C5B288F80950B4
:10565000F17C002902D000BF4FF00401294488F8F2
:105660000710574616D01C484FF0010100F1080002
:105670000176D6E91612C0E9041294F86B0008F01E
:1056800019F8154903462A460831012005F086FC21
:1056900005F0BAFC012000F073FB104800680328F5
:1056A00010D00B280ED0484640F8527F47600A4879
:1056B000B188523041802188018096F82310017111
:1056C000BDE8F08740F2C1112720FEF7AFFF0000D0
:1056D000AC000020845F0000C80B00205015004083
:1056E0002DE9F047054600F0A9F8334E0446706AEC
:1056F00047780DB1012D03D1716B06F05BFF70701F
:1057000070784FF000084FF0010950B101281AD00D
:10571000022834D0032848D040F215412720FEF754
:1057200085FF012D32D000F0E7F839460122706B79
:1057300007F067FB28E000BF84F8088031E000BF75
:1057400084F808902DE0012D08D000F0D5F83946F6
:105750000022706B07F055FB022D0BD0D4E9160127
:10576000401C41F10001C4E91601207A012803D050
:1057700084F80890BDE8F08784F80880FAE7012DE6
:1057800004D0706B07F04EFD022DF3D0D4E9160162
:10579000401C41F10001C4E91601207A0128CFD153
:1057A000CAE7BDE8F04701F0CDB8012DE2D0706B3B
:1057B00007F038FDF5E70000AC0000200248C08982
:1057C000C0F3802070470000AC000020044800783F
:1057D00008B10C207047034900204874704700004E
:1057E000AC0000201A0C00200C4810B5017849B11B
:1057F00000F138010078022808D040F2DD1127209E
:10580000FEF714FFBDE8104000F0D8B94868D0F8A2
:105810000801BDE8104005F0DFBD0000AC0000202D
:10582000024A93890343938152691047AC000020D8
:105830000148406870470000E400002001484068CB
:1058400070307047E4000020014A0021526910477F
:10585000AC00002070B5FFF7F1FF0446FFF7E8FF4A
:105860000546214608F0A3F895F82610012914D121
:10587000002812D0094842682888A2F8F601607A08
:1058800082F8F801A07A82F8F90102F5FA72012093
:105890001070BDE8704001F055B870BDE400002004
:1058A00070B50546012918D8124CA1698847A0B1E6
:1058B000607990B9E5B904F110000178C80605D403
:1058C000E06A0078C00601D4012000E00020A26A4E
:1058D0002AB962891AB1C90601D4012070BDA18913
:1058E0008A0703D5226AD278022A01D00843F4D16C
:1058F000002070BDAC00002010B5084CA06A38B183
:105900006289616AD21C06F0DFFCA06A606210BD89
:1059100040F25B412720FEF789FE0000AC0000202A
:1059200010B5FFF785FF0446FFF788FF0146427B6D
:105930001548242A0ED0897B24290BD01F2A0DD08C
:10594000202A0BD022290FD094F86A00042800D115
:10595000082010BD406890F896110EE0222903D06F
:10596000406890F8B00105E0416891F8B00191F805
:105970006310084007F094FE014694F86A00BDE801
:10598000104007F0A5BE0000E40000202DE9F84318
:1059900088460746FFF752FF574C002605468DF80C
:1059A00000602078022804D040F2BA412720FEF798
:1059B0003DFEA07B400606D44020FFF745FFE0896E
:1059C00040F04000E081E87CC7B305F04DFB05F0F6
:1059D00031FB68B9E87C58B1606A417841B1007820
:1059E000297AC0F3C000884202D10120A07063E090
:1059F000606A4178618121B1606B07F0E0FBA062D1
:105A000000E0A662E08940F48070E081606AE97994
:105A10000078C0F38000884205D000F063F9E08987
:105A200040F48060E081606A297A0078C0F3C000A9
:105A300088420ED1684600F017F90AE0FFE708B186
:105A400005F00CFBE078401CE070E08940F4007049
:105A5000E081A87C98B1FFF7EBFE28490E76D5E9E6
:105A60001423C1E9042390F86A0007F023FE0346DB
:105A7000FB222249002005F091FA05F0C5FA1F4DDE
:105A80004A35B8F1000F04D1E1780120FFF708FF93
:105A9000B0B105F0D9FE9DF8000010B10020FFF76D
:105AA0001FFE37B1E6706879401C6871FFF7D2FEBF
:105AB00002E0A879401CA87100F080F8BDE8F883E6
:105AC0009DF8000010B10120FFF70AFE002000F051
:105AD00095F99DF8000010B10220FFF701FE37B1E3
